:020000040000FA
:100000000C9468000C9490000C9490000C94900058
:100010000C9490000C9490000C9490000C94900020
:100020000C9490000C9490000C9490000C94900010
:100030000C9490000C9490000C9490000C94900000
:100040000C9402070C9490000C9472070C944C07CB
:100050000C9490000C9490000C9490000C949000E0
:100060000C9490000C94900063825363000108008C
:10007000060400014500008200004000200000004E
:1000800000240027002A0000000000250028002B83
:100090000004040404040404040202020202020331
:1000A000030303030301020408102040800102043B
:1000B00008102001020408102000000008000201BE
:1000C0000000030407000000000000000000880D8D
:1000D00011241FBECFEFD8E0DEBFCDBF12E0A0E0FD
:1000E000B1E0E0EDF1E202C005900D92A637B10754
:1000F000D9F726E0A6E7B2E001C01D92A533B2070A
:10010000E1F710E0C8E6D0E004C02197FE010E94AC
:10011000C90DC736D107C9F70E94A4070C94E61091
:100120000C940000CF93DF93209131062223C1F07D
:10013000FC0120812223A1F0C1E3D6E0ADE2B6E0CC
:100140009C012C5F3F4F899141919D918427892388
:1001500039F4E217F307B9F781E0DF91CF91089501
:1001600080E0FBCFFC01538D448D252F30E0842FA0
:1001700090E0821B930B541710F0CF9608950197CF
:100180000895FC01918D828D981761F0A28DAE0FBC
:10019000BF2FB11D5D968C91928D9F5F9F73928F43
:1001A00090E008958FEF9FEF0895FC01918D828D6F
:1001B000981731F0828DE80FF11D858D90E008953C
:1001C0008FEF9FEF0895FC01918D228D892F90E094
:1001D000805C9F4F821B91098F7399270895FC01C2
:1001E000A48DA80FB92FB11DA35ABF4F2C91848D98
:1001F00090E001968F739927848FA689B7892C93F5
:10020000A089B1898C91837080648C93938D848D47
:10021000981306C00288F389E02D80818F7D80834A
:100220000895EF92FF920F931F93CF93DF93EC010A
:1002300081E0888F9B8D8C8D98131AC0E889F9898D
:10024000808185FF15C09FB7F894EE89FF89608390
:10025000E889F98980818370806480839FBF81E011
:1002600090E0DF91CF911F910F91FF90EF90089553
:10027000F62E0B8D10E00F5F1F4F0F731127E02E2E
:100280008C8D8E110CC00FB607FCFACFE889F98966
:10029000808185FFF5CFCE010E94EF00F1CFEB8D7D
:1002A000EC0FFD2FF11DE35AFF4FF0829FB7F8943A
:1002B0000B8FEA89FB8980818062CFCFCF93DF9358
:1002C000EC01888D8823B9F0AA89BB89E889F9896E
:1002D0008C9185FD03C0808186FD0DC00FB607FCA3
:1002E000F7CF8C9185FFF2CF808185FFEDCFCE01D6
:1002F0000E94EF00E9CFDF91CF91089589E792E066
:100300000E94E30021E0892B09F420E0822F089568
:1003100080E090E0892B29F00E947E0181110C94ED
:100320000000089590E0FC01E754FF4F2491FC0188
:10033000EB55FF4F3491FC01EF56FF4FE491EE2354
:10034000C9F0222339F0233001F1A8F4213019F14A
:10035000223029F1F0E0EE0FFF1FE957FF4FA59182
:10036000B4918FB7F894EC91611126C030953E237B
:100370003C938FBF08952730A9F02830C9F024306E
:1003800049F7809180008F7D03C0809180008F7736
:1003900080938000DFCF84B58F7784BDDBCF84B5B9
:1003A0008F7DFBCF8091B0008F778093B000D2CF4C
:1003B0008091B0008F7DF9CF3E2BDACFCF93DF93C2
:1003C00090E0FC01EB55FF4F24918F569F4FFC01AD
:1003D00084918823D1F090E0880F991FFC01E358A5
:1003E000FF4FA591B491FC01E957FF4FC591D491FE
:1003F00061110EC09FB7F8948C91E22FE0958E2387
:100400008C932881E223E8839FBFDF91CF910895E9
:100410008FB7F894EC91E22BEC938FBFF6CF3FB7F8
:10042000F8948091290690912A06A0912B06B0910C
:100430002C0626B5A89B05C02F3F19F00196A11DDB
:10044000B11D3FBFBA2FA92F982F8827BC01CD011E
:10045000620F711D811D911D42E0660F771F881F7D
:10046000991F4A95D1F708958F929F92AF92BF92AC
:10047000CF92DF92EF92FF924B015C010E940F023C
:100480006B017C010E940F026C197D098E099F0986
:10049000683E734081059105A8F321E0821A910816
:1004A000A108B10888EEC80E83E0D81EE11CF11C3B
:1004B00081149104A104B10429F7FF90EF90DF901B
:1004C000CF90BF90AF909F908F9008952FB7F894E2
:1004D0006091250670912606809127069091280646
:1004E0002FBF0895AF92BF92CF92DF92EF92FF920B
:1004F0000F931F93CF93DF936C017B018B01040F4C
:10050000151FEB015E01AE18BF08C017D10759F0E7
:100510006991D601ED91FC910190F081E02DC60129
:100520000995892B79F7C501DF91CF911F910F9123
:10053000FF90EF90DF90CF90BF90AF9008958091A3
:1005400078039091790398278927982744972091D9
:10055000960330E044E0359527954A95E1F7220F60
:10056000331F220F331F821B930B97FF02C090E0B3
:1005700080E0089520918C0330918A0330938C039E
:1005800020938A0320918D0330918B0330938D0348
:1005900020938B03E8E6F3E021A5820F911D25A5AA
:1005A00085A7662381F021A7892F9927319723E01A
:1005B000E436F20789F710929A0310929B0380E5C4
:1005C00080939603089511A6EFCF0F931F93CF93B7
:1005D000DF9370E068597C4F8A01075F1F4F21301D
:1005E00029F0223031F48A010250110930E020E074
:1005F00003C000E010E09801EB01FA01E230F105E0
:1006000058F0A991B991BA27AB27BA270A0F1B1F37
:10061000211D311D3297F2CFFA01EE7F6E0F7F1F41
:100620004E175F0769F0FB01408150E070E060E029
:10063000762F652F542F4427040F151F261F371FB1
:10064000A90166277727411551056105710519F044
:1006500022273327F1CF00951095E82FF0E0E859D5
:10066000FC4F10830183DF91CF911F910F9108956B
:10067000E8E6F3E0108E118E80E4848B158A868B79
:1006800020E044E150E06EE088E10C94E5028EBD8C
:100690000DB407FEFDCF089561E0809116030E941E
:1006A000920178940895F89460E0809116030C9478
:1006B00092010F931F93CF93DF93EC018B010E9464
:1006C00053032097B9F08AE30E9447031EBCF80148
:1006D000CE01019739F00DB407FEFDCF2EB51EBC3B
:1006E0002193F7CF2197C00FD11F0DB407FEFDCF87
:1006F0008EB58883DF91CF911F910F910C944C039D
:100700001F93CF93DF93182FC62FD42F0E9453032C
:100710008C2F8F71812B0E9447038D2F0E944703DE
:10072000DF91CF911F910C944C03CF93C82FC076CB
:10073000809178028C1799F043E06FE180EA0E9483
:100740008003C09378024C2F50E085E05595479583
:100750008A95E1F76FE180E8CF910C948003CF9107
:100760000895CF93DF93C82FD62F0E9495034D2F66
:100770006C2F80E4DF91CF910C948003CF93DF93B3
:10078000C82FD72F0E94B1036D2F81E08C0FDF910E
:10079000CF910C94B103CF93C82F0E9495030E9470
:1007A00053038C2F8F710E94470380E00E94470300
:1007B000C7FF03C080E00E944703CEB50E944C03F0
:1007C0008C2FCF910895CF93DF93EC0140E86FE138
:1007D00080E80E94800340E86FE180EA0E94800385
:1007E0004AE06CE180EA0E94800360E07CE082E005
:1007F0000E94BE03BE01745F86E00E94BE0340E01B
:1008000060E08AE70E9480030E9453032097B1F0C2
:100810008AE70E944703809168038EBDE9E6F3E012
:10082000C859DC4FEC17FD0731F081910DB407FE7C
:10083000FDCF8EBDF7CF0DB407FEFDCF0E944C0358
:1008400048E06FE180E80E948003D0E0C0E08CE1E6
:100850000E94CB038A7029F42196C83E83E0D80712
:10086000B1F78CE10E94CB0381FD03C0C83ED340A9
:1008700039F448E06FE180EADF91CF910C94800376
:10088000DF91CF9108950F931F93CF93DF938C0146
:100890008896C8E6D3E0988B898B0E9438031AAA01
:1008A0001BAAA801445E5F4F22E06AE182E30E9436
:1008B000E502C801C696DF91CF911F910F910C946C
:1008C000E303CF93DF93EB01682F84ED0E94B10324
:1008D000BE0186ED0E94BE038AEE0E94CB0380FD1E
:1008E000FBCFDF91CF910895CF92DF92EF92FF92ED
:1008F0000F931F938634910568F120918B03233465
:1009000049F5C0909603D0909703E0909803F0903B
:100910009903009128031091290320912A03309113
:100920002B03C016D106E206F306A1F4E2E8F4E0D8
:1009300088599C4F9F012E5F3F4F41815081553315
:1009400019F45281651771F0F901E40FF11DE817F0
:10095000F90780F380E01F910F91FF90EF90DF90F7
:10096000CF90089581E0F7CFE0917602F091770281
:100970009F012F5F3F4F3093770220937602808351
:100980000895FF920F931F93CF93DF93162FF42EAA
:10099000052F0E94B404812F0E94B404CF2DD02FC4
:1009A000115020F089910E94B404FACFDF91CF91C9
:1009B0001F910F91FF900895DC0196E0FB010190DB
:1009C0000D929A95E1F70895CF93DF93EB0144E000
:1009D00050E0BC0184E893E00E94DE0D892B49F4CD
:1009E0006EE773E0CE010E94DC0481E0DF91CF91DD
:1009F000089580E0FBCFBC0188E693E00E94DC0410
:100A000069E373E08EE693E00C94DC04DC0194E08F
:100A1000FB0101900D929A95E1F708950F931F93B2
:100A2000CF938C0182E491E00E94FB04E8E6F3E0BE
:100A300088E08487C6E0C58748E050E06CE670E057
:100A400086E793E00E94B50DE8E8F3E0DF011D9230
:100A5000CA95E9F769E373E08EE793E00E94DC044E
:100A6000B8018EE893E00E94060561E376E084E831
:100A700093E00E9406058AE290E0CF911F910F91CA
:100A80000C94E3038EE693E00E94FB0462E873E0BB
:100A900086E893E00E94060561E376E082E893E051
:100AA0000E9406050C943803262F2061209397039B
:100AB000643021F0009711F481E090E061E00E9441
:100AC000BA021092780388E2809379030E9442056B
:100AD00084E0809398031092990322E04CE150E067
:100AE0006AE182E30E94E50286E390E00C94E3036E
:100AF000CF93DF93EB010E94FB04BE0186E893E0F5
:100B00000E94060561E376E082E893E0DF91CF91F1
:100B10000C940605EF92FF920F931F93CF93DF93F0
:100B20008C01E8E6F3E086E191E0DF019C011D9293
:100B300021503040E1F780913803C2E4D1E08330A6
:100B400011F4C3E2D3E0CE010E949200BE018823DB
:100B500009F4ACC085E493E00E9478058881807F29
:100B6000803E91F088819981AA81BB818F3F9F4F00
:100B7000AF4FBF4F49F044E050E0BE018FE393E038
:100B80000E94DE0D892B31F462E471E088E693E087
:100B90000E94DC0488E0809374031092750349E09E
:100BA00050E064E770E086E793E00E94B50D109294
:100BB000780381E180937F0310928C0383E4809318
:100BC0008D0310928A0384E480938B0310928E032A
:100BD000109290031092910362E471E088E693E032
:100BE0000E94DC0481E0809392038093930386E06B
:100BF000809394038091280390912903A0912A0364
:100C0000B0912B038093960390939703A09398033E
:100C1000B0939903C0913803C33031F461E376E0B7
:100C20008EE993E00E94060569E373E08EEA93E0A3
:100C30000E94DC048EE794E0909377028093760222
:100C4000E8E6F0E084910E94B404E9E6F0E08491E3
:100C50000E94B404EAE6F0E084910E94B404EBE65A
:100C6000F0E084910E94B40485E30E94B40481E022
:100C70000E94B40483E0C11101C081E00E94B40469
:100C80008DE30E94B40487E00E94B40481E00E94D6
:100C9000B40489E3E82E83E0F82EC7E0C15049F0A0
:100CA000D7018D917D010E94B404F8CF8BE493E0CD
:100CB00053CF80910001882371F060E071E0FB0167
:100CC00001900020E9F7BF016150714040E051E020
:100CD0008CE00E94C1040115110559F0A80164E0DF
:100CE00082E30E94C10443E253E064E086E30E9491
:100CF000C10487E30E94B40483E00E94B40481E04D
:100D00000E94B40483E00E94B40486E00E94B4040C
:100D10008FEF0E94B404C0917602D0917702C2593D
:100D2000D340CE014C9690937803809379030E9430
:100D30003803CE01089690938E0380938F03AE0103
:100D4000405F5F4F21E06AE188E20E94E502CE0148
:100D50008A96DF91CF911F910F91FF90EF900C94A5
:100D6000E3030F931F93CF93DF93CDB7DEB7C05943
:100D7000D1400FB6F894DEBF0FBECDBF88E491E03E
:100D80009F938F938CE491E09F938F938E010F5FDD
:100D90001F4F1F930F930E940E0EF8010190002029
:100DA000E9F73197AF01401B510BB8018EE993E091
:100DB0000E94EB0DF80101900020E9F73197CF0177
:100DC000801B910B8C0160E0809143039091440360
:100DD0000E94540589E180939703C8010E9443044F
:100DE0000F900F900F900F900F900F90C057DE4F05
:100DF0000FB6F894DEBF0FBECDBFDF91CF911F912C
:100E00000F9108951F920F920FB60F9211242F93F6
:100E10003F938F939F93AF93BF93809125069091BB
:100E20002606A0912706B09128063091240623E0DB
:100E3000230F2D3758F50196A11DB11D20932406CF
:100E40008093250690932606A0932706B093280644
:100E50008091290690912A06A0912B06B0912C062C
:100E60000196A11DB11D8093290690932A06A09397
:100E70002B06B0932C06BF91AF919F918F913F911C
:100E80002F910F900FBE0F901F90189526E8230FFB
:100E90000296A11DB11DD2CF1F920F920FB60F92D5
:100EA00011242F933F934F935F936F937F938F936F
:100EB0009F93AF93BF93EF93FF9389E792E00E94D4
:100EC000EF00FF91EF91BF91AF919F918F917F9133
:100ED0006F915F914F913F912F910F900FBE0F90A7
:100EE0001F9018951F920F920FB60F9211242F93F7
:100EF0008F939F93EF93FF93E0918902F0918A0281
:100F00008081E0918F02F091900282FD1BC0908160
:100F1000809192028F5F8F7320919302821741F02C
:100F2000E0919202F0E0E758FD4F958F8093920296
:100F3000FF91EF919F918F912F910F900FBE0F9086
:100F40001F9018958081F4CFCF93DF9300D000D00D
:100F500000D0CDB7DEB7789484B5826084BD84B507
:100F6000816084BD85B5826085BD85B5816085BDA4
:100F700080916E00816080936E001092810080915C
:100F800081008260809381008091810081608093E4
:100F90008100809180008160809380008091B10009
:100FA00084608093B1008091B00081608093B00034
:100FB00080917A00846080937A0080917A008260C8
:100FC00080937A0080917A00816080937A0080918A
:100FD0007A00806880937A001092C10061E085E019
:100FE0000E94DE0161E084E00E94DE0161E087E0B2
:100FF0000E94DE0161E086E00E94DE01109265033E
:1010000087E390E0C12CD12C7601C3940097C1F006
:10101000FC0123E0F595E7952A95E1F7E95EFC4FA1
:10102000282F2770B701A60104C0440F551F661F63
:10103000771F2A95D2F72081242B20830197E6CFB2
:1010400068E271E089E393E00E94DC048CEB92E0BB
:1010500090931F0380931E030CB406FC25C061E02F
:101060008AE00E94DE0161E08AE00E94920161E074
:101070008BE00E94DE0161E08DE00E94DE0160E015
:101080008CE00E94DE0161E08BE00E94920160E052
:101090008BE00E94920160E08DE00E94920180E569
:1010A0008CBD8DB581608DBD8AE08093160361E0B3
:1010B0000E94DE010E944C034FEF60E08FEF0E9420
:1010C000800362E070E080E090E00E9434020E94C1
:1010D00053038DE10E94470380E00E9447031EB541
:1010E0000E944C03112399F370E060E088E00E94B5
:1010F000BE0370E060E08CE00E94BE036FEF7BE017
:101100008AE00E94BE0360E07CE084E00E94BE03AF
:101110006FEF71E186E00E94BE0366E774E084E150
:101120000E94610461EB88E30E94B1036FE370E306
:1011300088E20E94BE0369EF77EF80E30E94BE035E
:1011400061E080EC0E94B10342E362EC80E80E941F
:10115000800362E17CE086EC0E94BE0362E184ECE5
:101160000E94B1036CED75E08AEC0E94BE036091B1
:10117000390384EE0E94B10360913A0385EE0E9428
:10118000B10360913B0382EE0E94B10360913C0386
:1011900083EE0E94B10360913D0380EE0E94B10393
:1011A00060913E0381EE0E94B10360E071E080E156
:1011B0000E9461048FE10E94950340EC6BE180E89E
:1011C0000E94800344E06FE180E80E94800382E790
:1011D0000E94CB031092650364E271E081E396E024
:1011E0000E940605109263031092620381E08093CF
:1011F000640360E271E08EE593E00E940605E1E39E
:10120000F6E02DE236E04FE353E09191D9018D9164
:101210009D018095892BDA018D93AD01B6E0E53310
:10122000FB0799F761E085E00E94DE0114E0E12E02
:10123000FF24F39403E0702EECE26E2EF0E65F2EB6
:10124000A8E13A2EB8E04B2E80912203882379F052
:1012500060912003709121036115710509F031C17E
:101260006FEF7BE08CE00E94BE031092220389E3C3
:101270000E94CB0310E000E08823C1F160912003BD
:101280007091210380E00E94BE03BE016F5F7F4F1B
:1012900086E090E00E94590389819A81909321030E
:1012A000809320038D819E818C010078112787FF18
:1012B00012C08B819C81049700911E0310911F0323
:1012C000015011098017910708F48C0168E673E05A
:1012D000C8010E945903F801E859FC4F1082F092AE
:1012E000220340E46EE180E80E9480038091650360
:1012F000882369F080913803823009F4EBC008F04C
:10130000E3C0882309F46CC1813009F489C1011557
:10131000110509F016C280916403857029F180914E
:10132000620390916303892BF9F461E184ED0E94DB
:10133000B10361E082ED0E94B1038AEE0E94CB030B
:1013400080FDFBCF60E082ED0E94B10389ED0E9439
:10135000CB0382FF09C08EE593E00E940E058091C9
:1013600064038860809364038091620390916303B7
:101370000196909363038093620380915D038130B3
:1013800009F06AC08091640381FF66C082E08093A7
:101390005D0380912F018F5F80932F01182F1F71A4
:1013A00083E593E00E94920063E573E0882309F4EB
:1013B000C5C185E493E00E947805409274031092C1
:1013C000750349E050E064E770E086E793E00E942F
:1013D000B50D6092790386E080937F030E94380305
:1013E00010928C0310928D038BE080938A031093EC
:1013F0008B03EEE8F3E0DF01242D1D922A95E9F737
:1014000080912E01809390038D5F80932E015092E6
:10141000960382E080939703709298031092990349
:1014200010929A0310929B0310929C0310929D03BA
:1014300080939E03E0929F038093A00386E28093B3
:10144000A10322E040E250E06AE182E30E94E5026B
:101450008AE390E00E94E30389E593E00E94920012
:10146000882371F08091580381110AC0809157033D
:10147000811106C089E593E00E940E05F0925703A2
:1014800083E593E00E949200882371F080915203DB
:1014900081110AC080915103811106C083E593E058
:1014A0000E940E05F0925103A0E0B0E0AB2B09F4CE
:1014B000CBCE0E947E01882309F4BECE0E9400009C
:1014C000BBCE61507109CECE833009F455C0843053
:1014D00009F01DCF65E0C8010E947404882309F457
:1014E000CAC080912703811108C088E30E94CB0302
:1014F000682F6E7F88E30E94B10362EA73E081E3A4
:1015000096E00E940605E2E8F4E0C80188599C4F85
:101510004C016F0192E0C90ED11C21808081863080
:1015200009F4FBC008F0BEC0813009F4ECC0833080
:1015300009F4EFC0F601E20DF11DE815F90548F3D5
:101540000E946602609330037093310380933203EC
:101550009093330380915E03882359F010926303C4
:1015600010926203F09264036EE573E0CB010E9477
:10157000060570923803CBCE8090340390903503EB
:10158000A0903603B09037032FEF82169206A20682
:10159000B20609F4BCCE0E9466022091300330915D
:1015A00031034091320350913303621B730B840B60
:1015B000950B681579058A059B0508F4A8CE81E38B
:1015C00096E00E948A05E09238030E9466026093CA
:1015D0002C0370932D0380932E0390932F0397CEAB
:1015E0000E946602609328037093290380932A0364
:1015F00090932B03E1E3F6E0DF012E2D1D922A9557
:10160000E9F790E080E00E948A0588E30E94CB031E
:10161000682F616088E30E94B103F0923803D5CF50
:1016200062E0C8010E947404882329F162EA73E031
:10163000CE0101960E940605E2E8F4E0C80188594F
:101640009C4FBF016E5F7F4F21813081363361F443
:1016500083E293E00E940605CE0101960E948A056E
:1016600082E080933803B1CFFB01E20FF11DE81750
:10167000F90738F3F1CF0E94660220912C033091D4
:101680002D0340912E0350912F03621B730B840B8B
:10169000950B613177428105910508F438CE10929F
:1016A000380335CE8A3331F08F3F09F449CF833385
:1016B00009F040CF10923403109235031092360394
:1016C00010923703F601C601049620E030E0A9012C
:1016D0006191542F432F322F2227260F311D411D98
:1016E000511D8E179F07A1F72F3FAFEF3A074A070B
:1016F0005A07B9F4209334033093350340933603EB
:101700005093370317CFB6018DE296E00E9406058D
:1017100011CFB6018EE593E0F9CFB60189E593E0EC
:10172000F5CFA8EEB3E00E94BE0D60933403709332
:1017300035038093360390933703FCCE8BE493E01C
:101740003ACE0932110508F4AFCE80917403883087
:1017500009F0AACE80917503863009F091C144E06A
:1017600050E061E376E08EE893E00E94DE0D892B85
:1017700009F09ACE80917D03813029F58EE693E0C1
:101780000E94FB0410927C0382E080937D036EE74D
:1017900073E088E893E00E94DC0469E373E08EE77D
:1017A00093E00E94DC0464E873E08EE893E00E941A
:1017B000060561E376E084E893E00E9406058AE28C
:1017C00090E00E94E3038091640383FF0DC01091B9
:1017D0007D03123049F46BE473E08EE593E00E94E0
:1017E000E40481111093640380915803811110C0A7
:1017F00080915703882361F065E473E089E593E005
:101800000E94E404882321F0F092580310925703B9
:1018100080915203811148CE80915103882309F4AD
:1018200043CE65E473E083E593E00E94E4048823FB
:1018300009F43ACEF09252031092510335CE06339A
:10184000110508F431CE863009F02ECE80918C033C
:101850008B3009F049C044E050E063E573E082E872
:1018600093E00E94DE0D892B09F01ECE10919703A4
:1018700085E012FD31C00E949F0220915D0322305D
:10188000F1F4212F20711271123171F460E090E0B7
:1018900080E00E9454053092970370925D0390E0BF
:1018A00080E00E94430400CEF0925D030196222363
:1018B00011F090E080E064E00E945405F5CD253001
:1018C00009F4F2CD10FF0BC0233009F4EDCD69E02F
:1018D00001960E94540586E080935D03E5CD60E0AB
:1018E000009709F4E1CDE8CF8111DECD80918D0321
:1018F000803509F0D9CDD0909703D1FE36C0109233
:101900007803609279030E94420582E180939703F5
:1019100060E081E090E00E94BA0210928E03109283
:101920008F0380912E0180939003109291038D5F1D
:1019300080932E0182E080939E03E0929F0385E0D6
:101940008093A0031092A103509296038093980372
:1019500098E79093990322E040E250E06AE182E345
:101960000E94E5028AE390E0D0C0D4FE9DCD0E94A3
:101970009F029093440380934303892B09F450C042
:101980008091960390E024E0959587952A95E1F75C
:10199000880F991F880F991F82960817190708F456
:1019A00083CD8C0108591C4F6CE572E0C8010E9480
:1019B000F40D892BD9F18091670381112EC061E06C
:1019C00084E00E94920161E087E00E94920164E657
:1019D00070E080E090E00E94340260E087E00E94C6
:1019E000920168EE73E080E090E00E94340260E0D3
:1019F00084E00E94920161E086E00E94920164E628
:101A000070E080E090E00E94340260E086E00E9496
:101A1000920110926603F09267030E94B10644CDD2
:101A2000D0FE42CD60E090E080E046CF68E672E014
:101A3000C8010E94F40D892B81F3809166038823ED
:101A400071F061E086E00E94920164E670E080E05F
:101A500090E00E94340260E086E00E94920161E022
:101A600085E00E94920168EE73E080E090E00E94C1
:101A7000340260E085E00E94920110926703CDCFAE
:101A80000932110509F410CD81110ECD8091760334
:101A9000853409F009CD44E050E061E376E086E862
:101AA00093E00E94DE0D892BA9F044E050E06FE343
:101AB00073E086E893E00E94DE0D892B59F044E044
:101AC00050E062E471E086E893E00E94DE0D892B2D
:101AD00009F0EACC80917F03813009F0B0CE80918B
:101AE0008A03883009F0E0CC0E94420510928A03F4
:101AF00080918C03883F28F090918D039F5F909395
:101B00008D03885F80938C03C8010E94E303CCCCD3
:101B1000E9E7F2E01382128288EE93E0A0E0B0E001
:101B200084839583A683B78384E391E09183808344
:101B300085EC90E09587848784EC90E09787868792
:101B400080EC90E0918B808B81EC90E0938B828B8A
:101B500082EC90E0958B848B86EC90E0978B868B63
:101B6000118E128E138E148E0895FB01DC0102C0BB
:101B700005900D9241505040D8F708950E94CF0D26
:101B8000A59F900DB49F900DA49F800D911D1124D1
:101B90000895EE0FFF1F0590F491E02D0994A29F88
:101BA000B001B39FC001A39F700D811D1124911D31
:101BB000B29F700D811D1124911D0895FB01DC0160
:101BC00004C08D910190801921F441505040C8F714
:101BD000881B990B0895FB01DC0102C001900D9256
:101BE00041505040D8F70895FB0151915523A9F079
:101BF000BF01DC014D9145174111E1F759F4CD01C9
:101C00000190002049F04D9140154111C9F3FB01AD
:101C10004111EFCF81E090E001970895AEE0B0E090
:101C2000E4E1FEE00C94BD100D891E8986E08C83F2
:101C30001A8309838FEF9FE79E838D83AE01475EF2
:101C40005F4F6F89788DCE0101960E94310E2F81F2
:101C50003885020F131FF80110822E96E4E00C94D1
:101C6000D910ABE0B0E0E7E3FEE00C94AF107C01EC
:101C70003B018A01FC0117821682838181FFC8C162
:101C8000CE0101965C01F7019381F30193FD8591EB
:101C900093FF81913F01882309F453C1853239F4C0
:101CA00093FD859193FF81913F01853229F4B7011E
:101CB00090E00E942110E7CF912C212C312CFFE1E4
:101CC000F31538F08B3211F190F4803209F1833240
:101CD00029F137FC3CC020ED280F2A3050F536FEA4
:101CE00020C08AE0989E200D1124922E06C08D32CD
:101CF00091F0803371F7689430F8F30193FD85918A
:101D000093FF81913F018111DACF21C0689431F8AE
:101D1000689432F8F2CF689433F8EFCF689434F8CF
:101D2000ECCFEAE02E9E200D1124222E689435F887
:101D3000E4CF8E3229F436FC04C1689436F8DDCF46
:101D40008C3619F4689437F8D8CF8836B1F2982FCA
:101D50009F7D95549330E0F08336A1F18337C1F134
:101D6000833509F063C02801F2E04F0E511CF801E1
:101D7000C080D180692D70E036FC02C06FEF7FEF2C
:101D8000C6010E940B104C01689437F882010AC00A
:101D90000C5F1F4FFFE3F98388248394912C650126
:101DA000E89437F833FE2DC0522C8114910471F55C
:101DB000552009F468CFB70180E290E00E9421101D
:101DC0005A94F6CFF801808189830E5F1F4FE4CFCC
:101DD0002801F2E04F0E511CF801C080D180692D1E
:101DE00070E036FC02C06FEF7FEFC6010E94161054
:101DF0004C018201D5CFB70180E290E00E94211012
:101E00002A942814190409F0B0F7CECFF60137FC54
:101E1000859137FE81916F01B70190E00E942110FA
:101E200051105A94F1E08F1A9108BFCF843619F0FF
:101E3000893609F077C0F80137FE6BC06081718187
:101E4000828193810C5F1F4FF32DFF763F2E97FF0A
:101E500009C090958095709561957F4F8F4F9F4FEA
:101E6000689437F82AE030E0A5010E945110C82E8E
:101E7000CA188C2C432C36FE0CC0E89440F8C914C8
:101E800040F434FE05C032FC03C0F32DFE7E4F2E1D
:101E9000892C44FE95C0FE01EC0DF11D808180333C
:101EA00009F087C0242D297E422E842D8870582E5B
:101EB00043FC95C040FE8FC09C2C821418F42C0C5F
:101EC000922C981844FE91C0B70180E390E00E94E4
:101ED000211042FE09C088E790E041FE02C088E57B
:101EE00090E0B7010E942110C91408F48AC0CA9476
:101EF000D12C9FEFC91AD90ACA0CDB1CF6018291BA
:101F00006F01B70190E00E942110AC14BD04B1F73D
:101F10004FCF60817181072E000C880B990B0E5FEB
:101F20001F4F92CFD32CE894D4F82AE030E08537C5
:101F300039F1232D297FD22E8F3601F148F48835CF
:101F4000A9F0F701868197812B96E2E10C94CB10E2
:101F5000803749F08837A9F7D4FE02C06894D2F8D8
:101F600020E130E00DC06894D4F8F6CF34FE03C011
:101F7000822F8660D82E20E132E002C028E030E0D7
:101F8000F801D7FE0FC060817181828193810C5F5F
:101F90001F4FA5010E945110C82ECA183D2CE8946D
:101FA00037F867CF6081718190E080E00E5F1F4F4E
:101FB000F0CF42FC02C0839478CF8394839475CF92
:101FC000842D867809F471CFF6CFB70180E290E0D6
:101FD0000E94211083948214C0F3512C73CF522C91
:101FE0005818821408F46ECFF8CF842D867809F43F
:101FF0007BCF8BE241FE80E247FC8DE2B70190E0AF
:1020000071CFB70180E390E00E9421109A946CCFC9
:102010008FEF9FEF99CFFC01059061507040011048
:10202000D8F7809590958E0F9F1F0895FC01615001
:10203000704001900110D8F7809590958E0F9F1FEA
:1020400008950F931F93CF93DF93182F092FEB0160
:102050008B8181FD09C01FEF0FEF812F902FDF9142
:10206000CF911F910F91089582FF14C02E813F815F
:102070008C819D81281739073CF4E881F981CF01D3
:1020800001969983888310838E819F8101969F8317
:102090008E83E3CFE885F985812F0995892BA1F3FC
:1020A000DACFFA01AA27283051F1203181F1E894E2
:1020B0006F936E7F6E5F7F4F8F4F9F4FAF4FB1E03B
:1020C0003ED0B4E03CD0670F781F891F9A1FA11D36
:1020D000680F791F8A1F911DA11D6A0F711D811D37
:1020E000911DA11D20D009F468943F912AE0269FFC
:1020F00011243019305D3193DEF6CF010895462F5B
:102100004770405D4193B3E00FD0C9F7F6CF462F3B
:102110004F70405D4A3318F0495D31FD40524193A4
:1021200002D0A9F7EACFB4E0A69597958795779561
:102130006795BA95C9F700976105710508959B01E8
:10214000AC010A2E06945795479537952795BA9571
:10215000C9F7620F731F841F951FA01D08952F924A
:102160003F924F925F926F927F928F929F92AF9227
:10217000BF92CF92DF92EF92FF920F931F93CF9374
:10218000DF93CDB7DEB7CA1BDB0B0FB6F894DEBF0B
:102190000FBECDBF09942A88398848885F846E8431
:1021A0007D848C849B84AA84B984C884DF80EE807B
:1021B000FD800C811B81AA81B981CE0FD11D0FB684
:1021C000F894DEBF0FBECDBFED010895F894FFCFA8
:1021D00041726475696E6F2D454E4332386A3630F0
:1021E0002D30300000000000000000000000000062
:1021F000C0A80201C0A802027469692D30310A0129
:102200000000000011017202B2005E01E300C10093
:10221000D500FFFFFFFFFFFF4F6666004854545094
:102220002F312E3120323030204F4B0D0A436F6E4C
:1022300074656E742D547970653A20746578742FC6
:1022400068746D6C0D0A436F6E6E656374696F6EB2
:102250003A20636C6F73650D0A0D0A3C21444F43AD
:10226000545950452068746D6C3E0D0A3C68746D7D
:102270006C3E0D0A3C686561643E0D0A3C746974ED
:102280006C653E4C454420436F6E74726F6C3C2FFE
:102290007469746C653E0D0A3C2F686561643E0D7F
:1022A0000A3C626F64793E0D0A3C68313E4C4544FD
:1022B00020436F6E74726F6C3C2F68313E0D0A3C88
:1022C000703E4C45442069732025733C2F703E0DB1
:1022D0000A3C703E3C6120687265663D222F6C6549
:1022E000642F6F6E223E5475726E204F6E3C2F61CC
:1022F0003E207C203C6120687265663D222F6C6523
:10230000642F6F6666223E5475726E204F66663C7F
:102310002F613E3C2F703E0D0A3C2F626F64793E68
:102320000D0A3C2F68746D6C3E0D0A004745542021
:102330002F6C65642F6F6E00474554202F6C6564C9
:062340002F6F666600002D
:107E0000112484B714BE81FFF0D085E080938100F7
:107E100082E08093C00088E18093C10086E0809377
:107E2000C20080E18093C4008EE0C9D0259A86E02C
:107E300020E33CEF91E0309385002093840096BBD3
:107E4000B09BFECF1D9AA8958150A9F7CC24DD24C4
:107E500088248394B5E0AB2EA1E19A2EF3E0BF2EE7
:107E6000A2D0813461F49FD0082FAFD0023811F036
:107E7000013811F484E001C083E08DD089C08234E0
:107E800011F484E103C0853419F485E0A6D080C0E4
:107E9000853579F488D0E82EFF2485D0082F10E0AE
:107EA000102F00270E291F29000F111F8ED06801E7
:107EB0006FC0863521F484E090D080E0DECF843638
:107EC00009F040C070D06FD0082F6DD080E0C81688
:107ED00080E7D80618F4F601B7BEE895C0E0D1E017
:107EE00062D089930C17E1F7F0E0CF16F0E7DF06D8
:107EF00018F0F601B7BEE89568D007B600FCFDCFD4
:107F0000A601A0E0B1E02C9130E011968C91119780
:107F100090E0982F8827822B932B1296FA010C0160
:107F200087BEE89511244E5F5F4FF1E0A038BF0790
:107F300051F7F601A7BEE89507B600FCFDCF97BE46
:107F4000E89526C08437B1F42ED02DD0F82E2BD052
:107F50003CD0F601EF2C8F010F5F1F4F84911BD097
:107F6000EA94F801C1F70894C11CD11CFA94CF0C13
:107F7000D11C0EC0853739F428D08EE10CD085E9AC
:107F80000AD08FE07ACF813511F488E018D01DD067
:107F900080E101D065CF982F8091C00085FFFCCF94
:107FA0009093C60008958091C00087FFFCCF809118
:107FB000C00084FD01C0A8958091C6000895E0E648
:107FC000F0E098E1908380830895EDDF803219F02E
:107FD00088E0F5DFFFCF84E1DECF1F93182FE3DFCA
:107FE0001150E9F7F2DF1F91089580E0E8DFEE27F6
:047FF000FF270994CA
:027FFE00040479
:00000001FF
